:100000000C9459000C9481000C9481000C94810094
:100010000C9481000C9481000C9481000C9481005C
:100020000C9481000C9481000C9481000C9481004C
:100030000C9481000C9481000C9481000C9481003C
:100040000C94E70A0C9481000C9405070C94DF06CD
:100050000C9481000C9481000C9481000C9481001C
:100060000C94310B0C948100000000002500280046
:100070002B00040404040404040402020202020229
:10008000030303030303010204081020408001025C
:1000900004081020010204081020000000080002DB
:1000A0000100000304070000000000000000A90C8C
:1000B000140F11241FBECFEFD8E0DEBFCDBF24E068
:1000C000AEE7B1E001C01D92A938B207E1F711E037
:1000D000A0E0B1E0E6E2F4E202C005900D92AE3796
:1000E000B107D9F710E0C8E5D0E004C02197FE01C0
:1000F0000E94EB0FC735D107C9F70E94140D0C946D
:1001000006120C94000080E991E00895539A089536
:1001100080E090E00895FC01858596850895CF9351
:10012000DF9300D000D000D0CDB7DEB7AB011C828A
:100130001D821E82DC01ED91FC910190F081E02D89
:1001400019821A821B829E012F5F3F4FBE016C5F96
:100150007F4F099526960FB6F894DEBF0FBECDBF30
:10016000DF91CF9108954F925F926F927F928F921D
:10017000AF92BF92CF92EF92FF920F931F93CF93C4
:10018000DF933C01EB010E94880AF3012785308947
:10019000621B730B6A307105B0F3F894E881F98142
:1001A0005BB158608BB1877F8BB96A859F81262FA1
:1001B000291B922F2F83BF844A805B807D85FC841E
:1001C000EE847F5FF394E3943E814885A984CB84D9
:1001D0001181D20120E0C32F022F322F318111274C
:1001E00088943111390F08F43FEF9195889470FD90
:1001F000130F1795889471FD130F1795889472FD4E
:10020000130F1795889473FD130F1795889474FD39
:10021000130F1795889475FD130F1795889476FD25
:10022000130F1795889477FD130F17958894232F34
:100230007111212F960F122F002C5BB900C017FFF0
:100240008BB930812227889400C000C0002C8BB964
:1002500031113C0F00C0002C5BB900C016FF8BB9F8
:1002600008F43FEFC195889400C000C0002C8BB902
:10027000F0FC230F00C0002C5BB900C015FF8BB948
:1002800027958894F1FC230F00C000C0002C8BB987
:100290002795889400C0002C5BB900C014FF8BB96F
:1002A000F2FC230F2795889400C000C0002C8BB966
:1002B000F3FC230F00C0002C5BB900C013FF8BB907
:1002C00027958894F4FC230F00C000C0002C8BB944
:1002D0002795889400C0002C5BB900C012FF8BB931
:1002E000F5FC230F2795889400C000C0002C8BB923
:1002F000F6FC230F00C0002C5BB900C011FF8BB9C6
:1003000027958894F7FC230F00C000C0002C8BB900
:100310002795889400C0002C5BB900C010FF8BB9F2
:10032000132FF110122FCA0D00C000C0002C8BB982
:1003300000C000C0002C5BB900C017FF8BB9328130
:100340002227889400C000C0002C8BB93111340FD3
:1003500000C0002C5BB900C016FF8BB908F43FEF5A
:10036000EB0DF11D00C000C0002C8BB9E0FC230F89
:1003700000C0002C5BB900C015FF8BB9279588948D
:10038000E1FC230F00C000C0002C8BB92795889496
:1003900000C0002C5BB900C014FF8BB9E2FC230F36
:1003A0002795889400C000C0002C8BB9E3FC230F74
:1003B00000C0002C5BB900C013FF8BB9279588944F
:1003C000E4FC230F00C000C0002C8BB92795889453
:1003D00000C0002C5BB900C012FF8BB9E5FC230FF5
:1003E0002795889400C000C0002C8BB9E6FC230F31
:1003F00000C0002C5BB900C011FF8BB92795889411
:10040000E7FC230F00C000C0002C8BB9279588940F
:1004100000C0002C5BB900C010FF8BB9132FE11096
:10042000122F419500C000C0002C8BB94C0D00C0AC
:1004300000C05BB900C017FF8BB9318122278894B7
:1004400000C000C0002C8BB93111390F00C0002C46
:100450005BB900C016FF8BB908F43FEF9195889403
:1004600000C000C0002C8BB970FD230F00C0002C11
:100470005BB900C015FF8BB92795889471FD230FD8
:1004800000C000C0002C8BB92795889400C0002CB8
:100490005BB900C014FF8BB972FD230F27958894B8
:1004A00000C000C0002C8BB973FD230F00C0002CCE
:1004B0005BB900C013FF8BB92795889474FD230F97
:1004C00000C000C0002C8BB92795889400C0002C78
:1004D0005BB900C012FF8BB975FD230F2795889477
:1004E00000C000C0002C8BB976FD230F00C0002C8B
:1004F0005BB900C011FF8BB92795889477FD230F56
:1005000000C000C0002C8BB92795889400C0002C37
:100510005BB900C010FF8BB9132F7111122F960F0A
:1005200000C000C0002C8BB9119709F086CE20EED8
:1005300031E0D2010E94D00FDC01CB01F4E0B6958E
:10054000A79597958795FA95D1F720E030E0A90116
:100550006AE9469E040C411D569E400D511D112412
:10056000450D511D840F951FA11DB11D893E43E00E
:100570009407A105B10508F434C0885E9340A10931
:10058000B10942E0B695A795979587954A95D1F719
:1005900047E0849F080E211D949F200D311D1124DA
:1005A000290F311D6091F50370E0860F971F820FB0
:1005B000931F4091620250916302609164027091B6
:1005C0006502292F3327420F531F611D711D409370
:1005D0006202509363026093640270936502809399
:1005E000F50378940E94880AF301708B6787DF9186
:1005F000CF911F910F91FF90EF90CF90BF90AF9050
:100600008F907F906F905F904F9008950F931F93FE
:10061000CF93DF93CDB7DEB762970FB6F894DEBF06
:100620000FBECDBF8C01F901DC011C968C917A8341
:1006300069835C834B835E834D8390819D87918129
:100640009E8792819F87813029F4CE0101960E9476
:100650005C0C06C01C861B861A86198618861F82AB
:1006600083E0888B1A8A198AD801ED91FC91048461
:10067000F585E02DBE016F5F7F4FC8010995629639
:100680000FB6F894DEBF0FBECDBFDF91CF911F91A3
:100690000F9108950F931F93CF93DF93CDB7DEB7DC
:1006A00062970FB6F894DEBF0FBECDBF8C01F90183
:1006B000DC011C968C917A8369835C834B835E8317
:1006C0004D8390819D8791819E8792819F87813004
:1006D00029F4CE0101960E945C0C06C01C861B8684
:1006E0001A86198618861F82188A1A8A198AD801CA
:1006F000ED91FC910484F585E02DBE016F5F7F4F85
:10070000C801099562960FB6F894DEBF0FBECDBF43
:10071000DF91CF911F910F91089588E692E00E949A
:10072000260A20918D01222309F448C083349105C3
:1007300031F13CF48134910561F082349105A1F0EE
:1007400008958534910569F13CF18634910571F184
:1007500008958091830280937A028091840280932D
:100760007B028091850215C080917D0280937A0280
:1007700080917E0280937B0280917F020AC08091EB
:10078000800280937A028091810280937B02809123
:10079000820280937C02089542E050E060E771E0BD
:1007A00009C045E050E063E771E004C044E050E078
:1007B00069E771E084E792E00C949F0681E0809302
:1007C0008D010895FC018AE091E09183808313827A
:1007D00012828FEF868387838087818782878387D2
:1007E00081E08487168615861582148280916602C0
:1007F00090916702892B21F4F0936702E0936602DF
:10080000A0917E01B0917F01109721F01596FC9385
:10081000EE931497F0937F01E0937E018AE191E0DB
:1008200091838083089540918E0150918F01809132
:100830007A0290917B0220917C02FA01EE0FFF1F59
:10084000E40FF51FE856FE4F46345105B4F4DF01BE
:1008500018978C9311969C9311962C9311968C93C8
:1008600011969C9311962C9311968C9311969C93B0
:1008700020834A5F5F4F7296E7CF089590E0FC01B6
:10088000E656FF4F2491FC01EA57FF4F3491FC01DB
:10089000EE58FF4FE491EE23B1F1222339F12330DA
:1008A00091F038F42130A9F0223001F584B58F7D24
:1008B00012C0273091F02830A1F02430B9F4809193
:1008C00080008F7D03C0809180008F7780938000AF
:1008D0000DC084B58F7784BD09C08091B0008F773B
:1008E00003C08091B0008F7D8093B000F0E0EE0FE8
:1008F000FF1FE859FF4FA591B4918FB7F894EC9181
:100900003E2B3C938FBF0895EF92FF920F931F935E
:10091000CF93DF93EC017B018A01E881F9810480A8
:10092000F581E02D0995FB82EA821E870D87E8811B
:10093000F9810284F385E02DCE010995009729F114
:100940009C0140E050E060E472E48FE090E00E949F
:10095000B10F722F632F0091EB031091EC032091E4
:10096000ED033091EE03872F962FDA018017910760
:10097000A207B30710F4D901C8018093EB03909349
:10098000EC03A093ED03B093EE03CE01DF91CF9182
:100990001F910F91FF90EF900895CF92DF92EF9209
:1009A000FF920F931F93CF93DF936C017A018B011A
:1009B000C0E0D0E0CE15DF0589F0D8016D918D0142
:1009C000D601ED91FC910190F081E02DC6010995D1
:1009D000892B11F47E0102C02196ECCFC701DF9173
:1009E000CF911F910F91FF90EF90DF90CF900895DE
:1009F0008BE493E00E94C00921E0892B09F420E0F8
:100A0000822F08953F924F925F926F927F928F92C2
:100A10009F92AF92BF92CF92DF92EF92FF920F938D
:100A20001F93CF93DF9300D01F92CDB7DEB7F09026
:100A3000E8038091EB039091EC03A091ED03B0915A
:100A4000EE03892B8A2B8B2BE9F00E94880A0091F8
:100A50004703109148032091490330914A03DC0178
:100A6000CB01801B910BA20BB30B0091EB031091F8
:100A7000EC032091ED033091EE0380179107A2075C
:100A8000B307B8F20E94880A609347037093480343
:100A90008093490390934A03E091F303F091F403A8
:100AA000309759F04091EF035091F0036091F103BA
:100AB0007091F2038F2D0995F82E00916602109126
:100AC00067024F2C512C612C712C0115110509F472
:100AD00061C0D8011C96EC901C978091E90390911D
:100AE000EA038436910510F41C961C92D801ED910E
:100AF000FC91A280B38019821A821B82F11014C06B
:100B0000F80145855685628173819E012F5F3F4FB5
:100B1000C801F5010995D8011C96EC921C97149612
:100B20000D911C911597D1CFF8013996CE01019600
:100B30006C0148019CE0890E911CDF0113973C90E9
:100B40002191332001F12223F1F0822F90E0A0E0E7
:100B5000B0E09C01AD012F5F3F4F4F4F5F4FC3018E
:100B6000B2010E946B0F9B01AC01832D90E0A0E0CD
:100B7000B0E0BC01CD016F5F7F4F8F4F9F4F0E9450
:100B80006B0FD6018C93BFEFCB1ADB0AE815F90582
:100B9000A1F6B6CF80914503909146039C012F5F4B
:100BA0003F4F309346032093450349970CF447C0C9
:100BB0008FB7F89400916202109163022091640251
:100BC000309165028FBFE0914503F091460388EEB6
:100BD00093E0E89FB001E99F700DF89F700D11241C
:100BE000072E000C880B990BC0904103D090420354
:100BF000E0904303F0904403A90198012C193D09AA
:100C00004E095F090E948F0F3093EA032093E90396
:100C100010924603109245032FB7F8948091620218
:100C200090916302A0916402B09165022FBF8093FE
:100C3000410390934203A0934303B09344030F9066
:100C40000F900F90DF91CF911F910F91FF90EF9038
:100C5000DF90CF90BF90AF909F908F907F906F90DC
:100C60005F904F903F9008950E94E811EF92FF929D
:100C70000F931F93CF93DF93EC0181E0888F9B8DBF
:100C80008C8D981305C0E889F989808185FD24C081
:100C9000F62E0B8D10E00F5F1F4F0F731127E02E04
:100CA0008C8DE8120CC00FB607FCFACFE889F989E1
:100CB000808185FFF5CFCE010E94670AF1CF8B8D31
:100CC000FE01E80FF11DE35AFF4FF0820B8FEA8916
:100CD000FB898081806207C0EE89FF896083E88993
:100CE000F98980818064808381E090E0DF91CF91F9
:100CF0001F910F91FF90EF900895CF93DF93EC0138
:100D0000888D8823C9F0EA89FB89808185FD05C02B
:100D1000A889B9898C9186FD0FC00FB607FCF5CF65
:100D2000808185FFF2CFA889B9898C9185FFEDCFAD
:100D3000CE010E94670AE7CFDF91CF910895EF922D
:100D4000FF920F931F93CF93DF93EC017B018A01F6
:100D500088819981009729F02A813B8124173507E2
:100D6000F8F4B8016F5F7F4F0E941E11009759F091
:100D7000998388831B830A832C813D81232B81F4F3
:100D8000FC0110820DC088819981009711F00E94AA
:100D90008610198218821D821C821B821A8207C04B
:100DA0001D830C83B701888199810E94FF11CE01B8
:100DB000DF91CF911F910F91FF90EF9008951F92B7
:100DC0000F920FB60F9211242F933F934F935F937F
:100DD0006F937F938F939F93AF93BF93EF93FF9303
:100DE0008BE493E00E94670AFF91EF91BF91AF916E
:100DF0009F918F917F916F915F914F913F912F9133
:100E00000F900FBE0F901F9018951F920F920FB664
:100E10000F9211242F938F939F93EF93FF93E09161
:100E20005B03F0915C038081E0916103F0916203C8
:100E300082FD12C09081809164038F5F8F73209137
:100E40006503821751F0E0916403F0E0E55BFC4F2D
:100E5000958F8093640301C08081FF91EF919F91F2
:100E60008F912F910F900FBE0F901F90189580E9D2
:100E700091E00895549A08954F925F926F927F92F5
:100E80008F92AF92BF92CF92EF92FF920F931F93E8
:100E9000CF93DF933C01EB010E94880AF301278581
:100EA0003089621B730B6A307105B0F3F894E881E6
:100EB000F9815BB150618BB18F7E8BB96A859F815F
:100EC000262F291B922F2F83BF844A805B807D852C
:100ED000FC84EE847F5FF394E3943E814885A9848B
:100EE000CB841181D20120E0C32F022F322F318118
:100EF000112788943111390F08F43FEF91958894A8
:100F000070FD130F1795889471FD130F1795889432
:100F100072FD130F1795889473FD130F179588941E
:100F200074FD130F1795889475FD130F179588940A
:100F300076FD130F1795889477FD130F17958894F6
:100F4000232F7111212F960F122F002C5BB900C097
:100F500017FF8BB930812227889400C000C0002C75
:100F60008BB931113C0F00C0002C5BB900C016FFDB
:100F70008BB908F43FEFC195889400C000C0002CE5
:100F80008BB9F0FC230F00C0002C5BB900C015FF2B
:100F90008BB927958894F1FC230F00C000C0002C6A
:100FA0008BB92795889400C0002C5BB900C014FF52
:100FB0008BB9F2FC230F2795889400C000C0002C49
:100FC0008BB9F3FC230F00C0002C5BB900C013FFEA
:100FD0008BB927958894F4FC230F00C000C0002C27
:100FE0008BB92795889400C0002C5BB900C012FF14
:100FF0008BB9F5FC230F2795889400C000C0002C06
:101000008BB9F6FC230F00C0002C5BB900C011FFA8
:101010008BB927958894F7FC230F00C000C0002CE3
:101020008BB92795889400C0002C5BB900C010FFD5
:101030008BB9132FF110122FCA0D00C000C0002C65
:101040008BB900C000C0002C5BB900C017FF8BB982
:1010500032812227889400C000C0002C8BB9311146
:10106000340F00C0002C5BB900C016FF8BB908F428
:101070003FEFEB0DF11D00C000C0002C8BB9E0FC70
:10108000230F00C0002C5BB900C015FF8BB927955A
:101090008894E1FC230F00C000C0002C8BB9279579
:1010A000889400C0002C5BB900C014FF8BB9E2FC2F
:1010B000230F2795889400C000C0002C8BB9E3FC57
:1010C000230F00C0002C5BB900C013FF8BB927951C
:1010D0008894E4FC230F00C000C0002C8BB9279536
:1010E000889400C0002C5BB900C012FF8BB9E5FCEE
:1010F000230F2795889400C000C0002C8BB9E6FC14
:10110000230F00C0002C5BB900C011FF8BB92795DD
:101110008894E7FC230F00C000C0002C8BB92795F2
:10112000889400C0002C5BB900C010FF8BB9132F4E
:10113000E110122F419500C000C0002C8BB94C0D5E
:1011400000C000C05BB900C017FF8BB931812227F6
:10115000889400C000C0002C8BB93111390F00C039
:10116000002C5BB900C016FF8BB908F43FEF9195D6
:10117000889400C000C0002C8BB970FD230F00C004
:10118000002C5BB900C015FF8BB92795889471FDC1
:10119000230F00C000C0002C8BB92795889400C095
:1011A000002C5BB900C014FF8BB972FD230F27958B
:1011B000889400C000C0002C8BB973FD230F00C0C1
:1011C000002C5BB900C013FF8BB92795889474FD80
:1011D000230F00C000C0002C8BB92795889400C055
:1011E000002C5BB900C012FF8BB975FD230F27954A
:1011F000889400C000C0002C8BB976FD230F00C07E
:10120000002C5BB900C011FF8BB92795889477FD3E
:10121000230F00C000C0002C8BB92795889400C014
:10122000002C5BB900C010FF8BB9132F7111122F66
:10123000960F00C000C0002C8BB9119709F086CE24
:1012400020EE31E0D2010E94D00FDC01CB01F4E0AE
:10125000B695A79597958795FA95D1F720E030E058
:10126000A9016AE9469E040C411D569E400D511D80
:101270001124450D511D840F951FA11DB11D893EDF
:1012800043E09407A105B10508F434C0885E93409B
:10129000A109B10942E0B695A795979587954A951A
:1012A000D1F747E0849F080E211D949F200D311D2A
:1012B0001124290F311D6091F50370E0860F971FEF
:1012C000820F931F40916202509163026091640209
:1012D00070916502292F3327420F531F611D711D25
:1012E00040936202509363026093640270936502BC
:1012F0008093F50378940E94880AF301708B6787C6
:10130000DF91CF911F910F91FF90EF90CF90BF9001
:10131000AF908F907F906F905F904F900895FC01F9
:10132000538D448D252F30E0842F90E0821B930B4A
:10133000541710F0CF96089501970895FC01918DF0
:10134000828D981761F0828DDF01A80FB11D5D9627
:101350008C91928D9F5F9F73928F90E008958FEF95
:101360009FEF0895FC01918D828D981731F0828D49
:10137000E80FF11D858D90E008958FEF9FEF0895A0
:10138000FC01918D228D892F90E0805C9F4F821B04
:1013900091098F739927089580E090E0892B29F0B7
:1013A0000E94F80481110C940000089585ED80934B
:1013B000BC008091BC0084FDFCCF10928201089596
:1013C000E0911704F0911804309729F010928401ED
:1013D0001092830109940895CF93DF93AC01E091BB
:1013E0008B01F0918C013097F1F090918601809102
:1013F00085019817C0F090E0292F30E026173707B5
:1014000054F4D901A950BC4FEA01C20FD31F8881FF
:101410008C939F5FF1CF1092860160938501CB0181
:10142000DF91CF910994DF91CF9108950895E091D4
:10143000860180918501E81730F4F0E0E950FC4F17
:10144000808190E008958FEF9FEF0895909186013D
:1014500080918501981750F4E92FF0E0E950FC4F96
:10146000208130E09F5F9093860102C02FEF3FEF15
:10147000C90108958091850190E020918601821B29
:1014800091090895CA01413288F4209182012430E3
:1014900069F440933904FB0149E154E0DA012A2F51
:1014A000241B281718F421912D93F9CF08958091CA
:1014B0008201843029F481E0809339046093190417
:1014C00081E090E00895089580E090E00895FC01A7
:1014D000848DDF01A80FB11DA35ABF4F2C91848DBD
:1014E00090E001968F739927848FA689B7892C93F2
:1014F000A089B1898C9180648C93938D848D98138D
:1015000006C00288F389E02D80818F7D8083089555
:101510003FB7F8948091810490918204A091830454
:10152000B091840426B5A89B05C02F3F19F0019601
:10153000A11DB11D3FBFBA2FA92F982F8827820F59
:10154000911DA11DB11DBC01CD0142E0660F771FA9
:10155000881F991F4A95D1F708958F929F92AF9255
:10156000BF92CF92DF92EF92FF926B017C010E94BB
:10157000880A4B015C01C114D104E104F104F1F0CB
:101580000E94880ADC01CB0188199909AA09BB09C4
:10159000883E9340A105B10570F321E0C21AD1083D
:1015A000E108F10888EE880E83E0981EA11CB11CAA
:1015B000C114D104E104F10419F7DDCFFF90EF90DD
:1015C000DF90CF90BF90AF909F908F9008951F9223
:1015D0000F920FB60F9211242F933F938F939F93E7
:1015E000AF93BF938091620290916302A0916402D5
:1015F000B09165023091800423E0230F2D3720F451
:101600000196A11DB11D05C026E8230F0296A11D5C
:10161000B11D209380048093620290936302A09393
:101620006402B09365028091810490918204A0913C
:101630008304B09184040196A11DB11D809381049F
:1016400090938204A0938304B0938404BF91AF91DC
:101650009F918F913F912F910F900FBE0F901F90F0
:1016600018951F920F920FB60F9211242F933F934C
:101670004F935F936F937F938F939F93AF93BF939A
:10168000EF93FF938091B900887F803609F49CC066
:1016900068F5883209F45BC090F4803109F454C0D5
:1016A00038F4882309F4F3C0883009F44DC0F3C03E
:1016B000883109F44CC0803209F45DC0ECC080343C
:1016C00009F468C048F4803309F455C0883309F040
:1016D000E2C080935C04D5C0803509F44FC08835E2
:1016E00009F45DC0883409F0D6C0D3C0883909F444
:1016F000C4C0A8F4883709F467C038F4883609F400
:1017000063C0803709F460C0C6C0883809F4B5C02A
:10171000803909F45FC0803809F0BDC05BC0803BF0
:1017200009F483C038F4803A09F466C0883A09F4B1
:101730007CC0B1C0803C09F4A4C0883C09F4A1C0BD
:10174000883B09F487C0A7C080917F0410C09091A6
:101750007E0480917D04981770F5E0917E0481E00D
:101760008E0F80937E04F0E0E35AFB4F80818093DC
:10177000BB0085EC83C080935C048BC0E0917E0449
:1017800081E08E0F80937E048091BB00F0E0E35AED
:10179000FB4F808390917E0480917D046BC0E0912B
:1017A0007E0481E08E0F80937E048091BB00F0E088
:1017B000E35AFB4F80838091810181116AC081E0EF
:1017C0008093800184EA5EC083E08093820110925E
:1017D0005B04CFCF80915B04803208F04EC0E09173
:1017E0005B0481E08E0F80935B048091BB00F0E08E
:1017F000E55CFB4F8083BDCF80915B04803230F489
:10180000E0915B04F0E0E55CFB4F10820E94D6099A
:1018100060915B0470E0E0918701F09188018BE3B7
:1018200094E0099510925B042CC084E080938201BF
:1018300010923A0410923904E0918901F0918A01E2
:10184000099580913904811105C081E080933904A4
:1018500010921904E0913A0481E08E0F80933A04CB
:10186000F0E0E75EFB4F80818093BB0090913A04EB
:1018700080913904981708F47CCF85E88093BC00E8
:101880000AC085EC8093BC001092820104C01092C3
:101890005C040E94D609FF91EF91BF91AF919F9197
:1018A0008F917F916F915F914F913F912F910F9009
:1018B0000FBE0F901F901895EF92FF920F931F93FA
:1018C000CF93DF93EC019091F6039F5F292F277050
:1018D0002093F60390FF02C090E801C090E021FD44
:1018E0009064247009F0906220E1290FFE013C967B
:1018F0007E018FE0E80EF11C00E011E061916623AB
:1019000031F070E0C8010E947B0F6F5F01C060E0A2
:10191000DF0114976C93322F369F030E30E0311D98
:101920001124CF010797311103C0EC01188203C0C5
:101930003150EC013883662311F061506C93EE1541
:10194000FF05E1F6DF91CF911F910F91FF90EF908E
:101950000895EBE4F3E01382128288EE93E0A0E0B6
:10196000B0E084839583A683B78320E531E031839B
:10197000208325EC30E03587248724EC30E037875E
:10198000268720EC30E0318B208B21EC30E0338B4C
:10199000228B22EC30E0358B248B26EC30E0378B29
:1019A000268B118E128E138E148EE8E6F2E01382CF
:1019B000128284839583A683B78382E691E0918324
:1019C0008083E8EEF3E08FEF808312821182148629
:1019D00013864FEF5FEFBA014783508761877287A5
:1019E000E3E8F2E0108290E891831282E0E8F2E00E
:1019F000808311821282EDE7F2E08083818312827C
:101A0000EAE7F2E0108281838283E4E7F2E0118268
:101A10001082138212821582148245E050E063E73F
:101A200071E0CF010C949F06789484B5826084BDE8
:101A300084B5816084BD85B5826085BD85B58160D2
:101A400085BD80916E00816080936E001092810050
:101A5000809181008260809381008091810081600B
:101A600080938100809180008160809380008091CC
:101A7000B10084608093B1008091B0008160809358
:101A8000B00080917A00846080937A0080917A001F
:101A9000826080937A0080917A00816080937A00DE
:101AA00080917A00806880937A001092C1008091C2
:101AB0009702811111C086E892E00E94E203109221
:101AC0009602109295028CE291E0909387028093A7
:101AD000860281E08093970246E450E060E971E07D
:101AE00086E892E00E9484048091B002811111C0C6
:101AF0008FE992E00E94E2031092AF021092AE02D0
:101B00008EE391E09093A00280939F0281E0809306
:101B1000B0024DE250E068EB72E08FE992E00E9483
:101B2000840480E58093E803F0907A0200917B02C0
:101B300010917C02C0E0D0E0FE01E057FE4FF08241
:101B400001831283FE01E854FD4FF082018312836A
:101B50000E9402056AE070E080E090E00E94AD0A19
:101B60002396C738D10541F7E0915B03F0915C0300
:101B700082E08083E0915703F09158031082E09156
:101B80005903F0915A038FEC808310926303E09124
:101B90005F03F091600386E08083E0915D03F09144
:101BA0005E03808180618083E0915D03F0915E033C
:101BB000808188608083E0915D03F0915E03808185
:101BC00080688083E0915D03F0915E0380818F7D6A
:101BD000808388E08093BA0080EE99E090938A0138
:101BE000809389018CEE99E090938801809387011E
:101BF0001092860110928501109284011092830147
:101C00001092820181E0809381011092800182E133
:101C10000E943E0483E10E943E048091B9008E7FC1
:101C20008093B9008091B9008D7F8093B90088E4DA
:101C30008093B80085E48093BC008DE893E0909396
:101C40008C0180938B01CFEF80918D01811115C0A4
:101C500080E090E0FC01E057FE4FC08311821282C9
:101C6000FC01E854FD4FC083118212820396823D2D
:101C7000910581F70E940205E7CFC6E0D0E010E8A9
:101C800080E090E0FC01E057FE4F10821183128249
:101C9000FC01E854FD4F1082118312820396823DAD
:101CA000910581F70E9402056AEF70E080E090E004
:101CB0000E94AD0A80E090E0FC01E057FE4F1082E8
:101CC00011821282FC01E854FD4F108211821282AF
:101CD0000396823D910581F70E94020566E970E056
:101CE00080E090E00E94AD0A219751F6CAE0D0E072
:101CF00004E010E080913F0390914003BE010E94F8
:101D00007B0F892B09F062C080E090E0FC01E05776
:101D1000FE4F1082118212820396853D9105B1F724
:101D20008091780290917902892B41F1E0907402C0
:101D3000F090750263E771E0C7010E94F611892BEC
:101D400009F442C060E771E0C7010E94F611892BD7
:101D5000A9F480918E0190918F01069724F0109242
:101D60008F0110928E010E94130480918E01909138
:101D70008F01019690938F0180938E01809178025C
:101D800090917902892B11F169E771E080917402D9
:101D9000909175020E94F611892BC1F480918E01F9
:101DA00090918F0197FF04C010938F0100938E01D3
:101DB0000E94130480918E0190918F01019790935E
:101DC0008F0180938E0102C00E94130440917A0219
:101DD00030917B0220917C0280E090E0FC01E8548D
:101DE000FD4F408331832283039687389105B1F7F5
:101DF0000E94020565E070E080E090E00E94AD0A7C
:101E000080913F03909140030196873C910529F012
:101E10009093400380933F0304C0109240031092BC
:101E20003F030E94CC0966CF8091740290917502A5
:101E30000C9486100E945C0FA59F900DB49F900D8E
:101E4000A49F800D911D112408952F923F924F92CF
:101E50005F926F927F928F929F92AF92BF92CF923A
:101E6000DF92EF92FF920F931F93CF93DF93CDB743
:101E7000DEB7CA1BDB0B0FB6F894DEBF0FBECDBFBB
:101E800009942A88398848885F846E847D848C848C
:101E90009B84AA84B984C884DF80EE80FD800C8195
:101EA0001B81AA81B981CE0FD11D0FB6F894DEBF78
:101EB0000FBECDBFED010895A29FB001B39FC00139
:101EC000A39F700D811D1124911DB29F700D811D66
:101ED0001124911D0895DB018F939F930E941A0F87
:101EE000BF91AF91A29F800D911DA39F900DB29FB6
:101EF000900D1124089597FB072E16F4009407D037
:101F000077FD09D00E94D70F07FC05D03EF49095CD
:101F100081959F4F0895709561957F4F0895A1E237
:101F20001A2EAA1BBB1BFD010DC0AA1FBB1FEE1F53
:101F3000FF1FA217B307E407F50720F0A21BB30B9E
:101F4000E40BF50B661F771F881F991F1A9469F71A
:101F500060957095809590959B01AC01BD01CF0176
:101F60000895052E97FB1EF400940E94C80F57FD9C
:101F700007D00E948F0F07FC03D04EF40C94C80FBB
:101F800050954095309521953F4F4F4F5F4F0895A5
:101F900090958095709561957F4F8F4F9F4F0895D5
:101FA0000E945C0FB7FF0895821B930B0895AA1B34
:101FB000BB1B51E107C0AA1FBB1FA617B70710F034
:101FC000A61BB70B881F991F5A95A9F78095909566
:101FD000BC01CD010895EE0FFF1F0590F491E02D97
:101FE0000994CF93DF938230910510F482E090E062
:101FF000E0918704F091880420E030E0C0E0D0E078
:10200000309711F14081518148175907C0F04817A6
:10201000590761F482819381209719F09B838A8309
:102020002BC0909388048093870426C02115310526
:1020300019F04217530718F49A01BE01DF01EF01AE
:102040000280F381E02DDCCF2115310509F1281B39
:10205000390B2430310590F412968D919C91139791
:102060006115710521F0FB019383828304C0909375
:10207000880480938704FD01329644C0FD01E20F7D
:10208000F31F81939193225031092D933C933AC0D1
:102090002091850430918604232B41F42091020184
:1020A0003091030130938604209385042091000130
:1020B000309101012115310541F42DB73EB7409112
:1020C000040150910501241B350BE0918504F0912A
:1020D0008604E217F307A0F42E1B3F0B28173907DD
:1020E00078F0AC014E5F5F4F2417350748F04E0F74
:1020F0005F1F50938604409385048193919302C09F
:10210000E0E0F0E0CF01DF91CF9108950F931F93AE
:10211000CF93DF93009709F48CC0FC0132971382B0
:10212000128200918704109188040115110581F431
:1021300020813181820F931F209185043091860484
:102140002817390779F5F0938604E093850471C068
:10215000D80140E050E0AE17BF0750F412962D9121
:102160003C911397AD012115310509F1D901F3CF48
:102170009D01DA013383228360817181860F971F6D
:102180008217930769F4EC0128813981260F371FE4
:102190002E5F3F4F318320838A819B81938382838B
:1021A000452B29F4F0938804E093870442C01396EA
:1021B000FC93EE931297ED01499159919E01240FE2
:1021C000351FE217F30771F480819181840F951F09
:1021D000029611969C938E938281938113969C9381
:1021E0008E931297E0E0F0E0D80112968D919C91C9
:1021F0001397009719F0F8018C01F6CF8D919C91FF
:1022000098012E5F3F4F820F931F209185043091DC
:1022100086042817390769F4309729F41092880446
:102220001092870402C013821282109386040093D6
:102230008504DF91CF911F910F910895A0E0B0E048
:10224000E4E2F1E10C94290FEC01009721F4CB01B9
:102250000E94F10FB8C0FC01E60FF71F9C0122504D
:102260003109E217F30708F4ACC0D9010D911C91B4
:10227000119706171707B0F00530110508F49FC035
:10228000C80104978617970708F499C002501109EE
:10229000061B170B019311936D937C93CF010E9442
:1022A00086108DC05B01A01AB10A4C01800E911EF0
:1022B000A0918704B091880440E050E0E12CF12C1B
:1022C000109709F44AC0A815B905D1F56D907C9016
:1022D0001197630182E0C80ED11CCA14DB0480F19F
:1022E000A3014A195B096A0182E0C80ED11C12964B
:1022F000BC9012971396AC91B5E0CB16D10440F088
:10230000B282A38351834083D9016D937C930AC029
:102310000E5F1F4FC301800F911FF90191838083CE
:10232000EB2DFA2FE114F10431F0D7011396FC9351
:10233000EE93129744C0F0938804E09387043FC063
:102340008D919C9111974817590708F4AC017D01B4
:1023500012960D90BC91A02DB3CF809185049091E1
:10236000860488159905E1F446175707C8F480914B
:10237000000190910101009741F48DB79EB7409103
:10238000040150910501841B950BE817F907C8F467
:10239000F0938604E0938504F901718360830FC094
:1023A000CB010E94F10F7C01009759F0A801BE01FA
:1023B0000E94ED11CE010E948610C70104C0CE011B
:1023C00002C080E090E0CDB7DEB7EEE00C94450FA0
:1023D00081E090E0F8940C940612FB01DC0102C04D
:1023E00001900D9241505040D8F70895FB01DC0157
:1023F0008D91019080190110D9F3990B0895FB017B
:10240000DC0101900D920020E1F7089510E0C8E58D
:10241000D0E004C0FE010E94EB0F2196C935D10720
:06242000C9F7F894FFCF9C
:1024260000008904800000000000340634063406EB
:102436008F008B008800000000004A030603340664
:102446008F008B0088003406000000004A03060354
:102456003A078F008B0037073C07000000004A034D
:10246600060386008F008B008300B3000000000087
:102476003606CD048F097D06C0099E09B209000003
:102486000000570A420A640A160A3A0A260A170A76
:0E2496007570007374696C6C00646F776E0073
:00000001FF
